{
  "_format": "hh-sol-artifact-1",
  "contractName": "ExampleComputeLiquidityValue",
  "sourceName": "contracts/periphery/examples/ExampleComputeLiquidityValue.sol",
  "abi": [
    {
      "inputs": [
        {
          "internalType": "address",
          "name": "factory_",
          "type": "address"
        }
      ],
      "stateMutability": "nonpayable",
      "type": "constructor"
    },
    {
      "inputs": [],
      "name": "factory",
      "outputs": [
        {
          "internalType": "address",
          "name": "",
          "type": "address"
        }
      ],
      "stateMutability": "view",
      "type": "function"
    },
    {
      "inputs": [
        {
          "internalType": "address",
          "name": "tokenA",
          "type": "address"
        },
        {
          "internalType": "address",
          "name": "tokenB",
          "type": "address"
        },
        {
          "internalType": "uint256",
          "name": "truePriceTokenA",
          "type": "uint256"
        },
        {
          "internalType": "uint256",
          "name": "truePriceTokenB",
          "type": "uint256"
        },
        {
          "internalType": "uint256",
          "name": "liquidityAmount",
          "type": "uint256"
        }
      ],
      "name": "getGasCostOfGetLiquidityValueAfterArbitrageToPrice",
      "outputs": [
        {
          "internalType": "uint256",
          "name": "",
          "type": "uint256"
        }
      ],
      "stateMutability": "view",
      "type": "function"
    },
    {
      "inputs": [
        {
          "internalType": "address",
          "name": "tokenA",
          "type": "address"
        },
        {
          "internalType": "address",
          "name": "tokenB",
          "type": "address"
        },
        {
          "internalType": "uint256",
          "name": "liquidityAmount",
          "type": "uint256"
        }
      ],
      "name": "getLiquidityValue",
      "outputs": [
        {
          "internalType": "uint256",
          "name": "tokenAAmount",
          "type": "uint256"
        },
        {
          "internalType": "uint256",
          "name": "tokenBAmount",
          "type": "uint256"
        }
      ],
      "stateMutability": "view",
      "type": "function"
    },
    {
      "inputs": [
        {
          "internalType": "address",
          "name": "tokenA",
          "type": "address"
        },
        {
          "internalType": "address",
          "name": "tokenB",
          "type": "address"
        },
        {
          "internalType": "uint256",
          "name": "truePriceTokenA",
          "type": "uint256"
        },
        {
          "internalType": "uint256",
          "name": "truePriceTokenB",
          "type": "uint256"
        },
        {
          "internalType": "uint256",
          "name": "liquidityAmount",
          "type": "uint256"
        }
      ],
      "name": "getLiquidityValueAfterArbitrageToPrice",
      "outputs": [
        {
          "internalType": "uint256",
          "name": "tokenAAmount",
          "type": "uint256"
        },
        {
          "internalType": "uint256",
          "name": "tokenBAmount",
          "type": "uint256"
        }
      ],
      "stateMutability": "view",
      "type": "function"
    },
    {
      "inputs": [
        {
          "internalType": "address",
          "name": "tokenA",
          "type": "address"
        },
        {
          "internalType": "address",
          "name": "tokenB",
          "type": "address"
        },
        {
          "internalType": "uint256",
          "name": "truePriceTokenA",
          "type": "uint256"
        },
        {
          "internalType": "uint256",
          "name": "truePriceTokenB",
          "type": "uint256"
        }
      ],
      "name": "getReservesAfterArbitrage",
      "outputs": [
        {
          "internalType": "uint256",
          "name": "reserveA",
          "type": "uint256"
        },
        {
          "internalType": "uint256",
          "name": "reserveB",
          "type": "uint256"
        }
      ],
      "stateMutability": "view",
      "type": "function"
    }
  ],
  "bytecode": "0x60a060405234801561001057600080fd5b506040516111833803806111838339818101604052602081101561003357600080fd5b5051606081901b6001600160601b0319166080526001600160a01b031661110861007b600039806101a952806101e7528061022a5280610268528061029252506111086000f3fe608060405234801561001057600080fd5b50600436106100575760003560e01c80633558e94c1461005c57806369a2fcbd146100b157806380caa353146100f3578063c45a015514610147578063d9b7a6e71461016b575b600080fd5b6100986004803603608081101561007257600080fd5b506001600160a01b038135811691602081013590911690604081013590606001356101a1565b6040805192835260208301919091528051918290030190f35b610098600480360360a08110156100c757600080fd5b506001600160a01b038135811691602081013590911690604081013590606081013590608001356101df565b610135600480360360a081101561010957600080fd5b506001600160a01b0381358116916020810135909116906040810135906060810135906080013561021f565b60408051918252519081900360200190f35b61014f610266565b604080516001600160a01b039092168252519081900360200190f35b6100986004803603606081101561018157600080fd5b506001600160a01b0381358116916020810135909116906040013561028a565b6000806101d17f0000000000000000000000000000000000000000000000000000000000000000878787876102c5565b915091505b94509492505050565b6000806102107f0000000000000000000000000000000000000000000000000000000000000000888888888861038a565b915091505b9550959350505050565b6000805a90506102537f0000000000000000000000000000000000000000000000000000000000000000888888888861038a565b505060005a909103979650505050505050565b7f000000000000000000000000000000000000000000000000000000000000000081565b6000806102b97f000000000000000000000000000000000000000000000000000000000000000086868661057b565b91509150935093915050565b6000806102d387878761071d565b909250905081158015906102e75750600081115b6103225760405162461bcd60e51b81526004018080602001828103825260328152602001806110206032913960400191505060405180910390fd5b600080610331868686866107eb565b91509150806000141561034657506102159050565b81156103675760006103598286866108d6565b94820194909303925061037e565b60006103748285876108d6565b9094039350918201915b50509550959350505050565b6000806000806001600160a01b0316896001600160a01b031663017e7e586040518163ffffffff1660e01b815260040160206040518083038186803b1580156103d257600080fd5b505afa1580156103e6573d6000803e3d6000fd5b505050506040513d60208110156103fc57600080fd5b50516001600160a01b03161415905060006104188a8a8a6109c6565b905060008261042857600061048e565b816001600160a01b0316637464fc3d6040518163ffffffff1660e01b815260040160206040518083038186803b15801561046157600080fd5b505afa158015610475573d6000803e3d6000fd5b505050506040513d602081101561048b57600080fd5b50515b90506000826001600160a01b03166318160ddd6040518163ffffffff1660e01b815260040160206040518083038186803b1580156104cb57600080fd5b505afa1580156104df573d6000803e3d6000fd5b505050506040513d60208110156104f557600080fd5b505190508681108015906105095750600087115b6105445760405162461bcd60e51b81526004018080602001828103825260278152602001806110ac6027913960400191505060405180910390fd5b6000806105548e8e8e8e8e6102c5565b915091506105668282858c8a89610a86565b97509750505050505050965096945050505050565b60008060008061058c88888861071d565b91509150600061059d8989896109c6565b90506000806001600160a01b03168a6001600160a01b031663017e7e586040518163ffffffff1660e01b815260040160206040518083038186803b1580156105e457600080fd5b505afa1580156105f8573d6000803e3d6000fd5b505050506040513d602081101561060e57600080fd5b50516001600160a01b03161415905060008161062b576000610691565b826001600160a01b0316637464fc3d6040518163ffffffff1660e01b815260040160206040518083038186803b15801561066457600080fd5b505afa158015610678573d6000803e3d6000fd5b505050506040513d602081101561068e57600080fd5b50515b90506000836001600160a01b03166318160ddd6040518163ffffffff1660e01b815260040160206040518083038186803b1580156106ce57600080fd5b505afa1580156106e2573d6000803e3d6000fd5b505050506040513d60208110156106f857600080fd5b5051905061070a8686838c8787610a86565b9750975050505050505094509492505050565b600080600061072c8585610b5f565b50905060008061073d8888886109c6565b6001600160a01b0316630902f1ac6040518163ffffffff1660e01b815260040160606040518083038186803b15801561077557600080fd5b505afa158015610789573d6000803e3d6000fd5b505050506040513d606081101561079f57600080fd5b5080516020909101516dffffffffffffffffffffffffffff91821693501690506001600160a01b03878116908416146107d95780826107dc565b81815b90999098509650505050505050565b600080856107fa858786610c27565b109150600061080f858563ffffffff610ce216565b9050600061086161085c61082b846103e863ffffffff610ce216565b866108365789610838565b8a5b6108576103e589610849578d61084b565b8c5b9063ffffffff610ce216565b610c27565b610d4b565b905060006103e5856108845761087f876103e863ffffffff610ce216565b610896565b610896886103e863ffffffff610ce216565b8161089d57fe5b049050808210156108b85750600093508392506101d6915050565b6108c8828263ffffffff610e9316565b935050505094509492505050565b60008084116109165760405162461bcd60e51b815260040180806020018281038252603081526020018061107c6030913960400191505060405180910390fd5b6000831180156109265750600082115b6109615760405162461bcd60e51b815260040180806020018281038252602d815260200180610fd0602d913960400191505060405180910390fd5b6000610975856103e563ffffffff610ce216565b90506000610989828563ffffffff610ce216565b905060006109af836109a3886103e863ffffffff610ce216565b9063ffffffff610ee316565b90508082816109ba57fe5b04979650505050505050565b60008060006109d58585610b5f565b604080516bffffffffffffffffffffffff19606094851b811660208084019190915293851b81166034830152825160288184030181526048830184528051908501206001600160f81b031960688401529a90941b9093166069840152607d8301989098527fced114f80f8ee6a3e5f70b31d4e21666320e9f115aaf81dcbea5c0f69fea1298609d808401919091528851808403909101815260bd909201909752805196019590952095945050505050565b600080838015610a965750600083115b15610b1e576000610ab061085c8a8a63ffffffff610ce216565b90506000610abd85610d4b565b905080821115610b1b57876000610ada848463ffffffff610e9316565b90506000610af3846109a387600563ffffffff610ce216565b90506000610b02848484610c27565b9050610b148c8263ffffffff610ee316565b9b50505050505b50505b85610b2f898763ffffffff610ce216565b81610b3657fe5b0486610b48898863ffffffff610ce216565b81610b4f57fe5b0491509150965096945050505050565b600080826001600160a01b0316846001600160a01b03161415610bb35760405162461bcd60e51b815260040180806020018281038252602a815260200180611052602a913960400191505060405180910390fd5b826001600160a01b0316846001600160a01b031610610bd3578284610bd6565b83835b90925090506001600160a01b038216610c205760405162461bcd60e51b8152600401808060200182810382526023815260200180610ffd6023913960400191505060405180910390fd5b9250929050565b6000806000610c368686610f32565b9150915060008480610c4457fe5b868809905082811115610c58576001820391505b918290039181610c7657848381610c6b57fe5b049350505050610cdb565b848210610cca576040805162461bcd60e51b815260206004820152601a60248201527f46756c6c4d6174683a2046554c4c4449565f4f564552464c4f57000000000000604482015290519081900360640190fd5b610cd5838387610f5f565b93505050505b9392505050565b6000811580610cfd57505080820282828281610cfa57fe5b04145b610d45576040805162461bcd60e51b815260206004820152601460248201527364732d6d6174682d6d756c2d6f766572666c6f7760601b604482015290519081900360640190fd5b92915050565b600081610d5a57506000610e8e565b816001600160801b8210610d735760809190911c9060401b5b680100000000000000008210610d8e5760409190911c9060201b5b6401000000008210610da55760209190911c9060101b5b620100008210610dba5760109190911c9060081b5b6101008210610dce5760089190911c9060041b5b60108210610de15760049190911c9060021b5b60088210610ded5760011b5b6001818581610df857fe5b048201901c90506001818581610e0a57fe5b048201901c90506001818581610e1c57fe5b048201901c90506001818581610e2e57fe5b048201901c90506001818581610e4057fe5b048201901c90506001818581610e5257fe5b048201901c90506001818581610e6457fe5b048201901c90506000818581610e7657fe5b049050808210610e865780610e88565b815b93505050505b919050565b80820382811115610d45576040805162461bcd60e51b815260206004820152601560248201527464732d6d6174682d7375622d756e646572666c6f7760581b604482015290519081900360640190fd5b80820182811015610d45576040805162461bcd60e51b815260206004820152601460248201527364732d6d6174682d6164642d6f766572666c6f7760601b604482015290519081900360640190fd5b6000808060001984860990508385029250828103915082811015610f57576001820391505b509250929050565b60008181038216808381610f6f57fe5b049250808581610f7b57fe5b049450808160000381610f8a57fe5b6002858103808702820302808702820302808702820302808702820302808702820302808702820302958602900390940293046001019390930293909301029291505056fe536f6d6e696145786368616e67654c6962726172793a20494e53554646494349454e545f4c4951554944495459536f6d6e696145786368616e67654c6962726172793a205a45524f5f41444452455353536f6d6e696145786368616e67654172626974726167654c6962726172793a205a45524f5f504149525f5245534552564553536f6d6e696145786368616e67654c6962726172793a204944454e544943414c5f414444524553534553536f6d6e696145786368616e67654c6962726172793a20494e53554646494349454e545f494e5055545f414d4f554e54436f6d707574654c697175696469747956616c75653a204c49515549444954595f414d4f554e54a2646970667358221220f43882d31bfc5fcdb8114d32e7c6ae328d86dbe17eedecad46086b3532040cb964736f6c63430006060033",
  "linkReferences": {},
  "deployedLinkReferences": {}
}